:020000022000DC
:1070000000000420C1750600017606000376060024
:1070100005760600077606000976060000000000E7
:10702000000000000000000000000000A574060041
:107030000D76060000000000C574060011760600FB
:10704000F1770600137606001376060021BC0300D4
:1070500013760600137606002D5006001376060000
:1070600013760600137606001376060013760600E4
:1070700013760600137606001376060013760600D4
:1070800013760600017206001376060013760600DA
:1070900013760600137606004930060013760600C4
:1070A00013760600137606001376060013760600A4
:1070B00013760600137606000000000000000000B2
:1070C000137606001376060013760600C17D0600CF
:1070D000137606001376060013760600217E020062
:1070E00013760600137606001376060000000000F3
:1070F000000000001376060000000000417E06003C
:10710000000000000000000000000000000000007F
:10711000000000000000000000000000000000006F
:10712000000000000000000000000000000000005F
:10713000000000000000000000000000000000004F
:10714000000000000000000000000000000000003F
:10715000000000000000000000000000000000002F
:10716000000000000000000000000000000000001F
:10717000000000000000000000000000000000000F
:1071800000000000000000000000000000000000FF
:1071900000000000000000000000000000000000EF
:1071A00000000000000000000000000000000000DF
:1071B00000000000000000000000000000000000CF
:1071C00000000000000000000000000000000000BF
:1071D00000000000000000000000000000000000AF
:1071E000000000000000000000000000000000009F
:1071F000000000000000000000000000000000008F
:10720000F1EE103A43F08073E1EE103A704700BFA0
:107210000348044B834202D0034B03B11847704725
:107220005067002050670020000000000548064B12
:107230001B1AD90F01EBA301491002D0034B03B174
:10724000184770475067002050670020000000007A
:1072500010B5064C237843B9FFF7DAFF044B13B19E
:107260000448AFF300800123237010BD5067002055
:10727000000000006452080008B5054B1BB1054929
:107280000548AFF30080BDE80840FFF7CFBF00BF5F
:10729000000000005467002064520800A3F5803A03
:1072A000704700BF174B002B08BF134B9D46FFF7DD
:1072B000F5FF00218B460F461348144A121A4CF072
:1072C00062FA0E4B002B00D098470D4B002B00D0DC
:1072D00098470020002104000D000D48002802D02E
:1072E0000C48AFF300804DF08FF92000290040F0EA
:1072F000AFF94AF049FB00BF0000080000000000A1
:10730000000000000000042050670020F8D4002096
:1073100000000000000000000146014800F0FEBA35
:107320008867002038B5054B1D7835B10024E0B2E0
:10733000013400F0A1FEAC42F9D138BD6C670020E9
:10734000002A00F093802DE9F043494991F81C414F
:1073500091F81D9191F81E611F46A31C93B081F80E
:107360001C3109F1020381F81D31731C81F81E31B3
:10737000804615460021422201A84CF004FA412F14
:1073800070D998F814308DF8143005238DF8153025
:1073900024238DF81630374B069301238DF81C30CB
:1073A00004238DF81F308DF8303040F60223ADF8FD
:1073B000333069F07F038DF82A302846402309F1E5
:1073C00001058DF83C3065F07F032B4D089540F6A4
:1073D0000835ADF80450082240F202258DF8064029
:1073E0008DF80E408DF826408DF82C20ADF8085011
:1073F0004FF4116240F209450134E4B2ADF82E2099
:10740000ADF80C50022240F201258DF81E408DF897
:1074100027408DF831408DF807208DF812208DF827
:107420003B20ADF8105040F20752032440F224658F
:107430008DF82B40ADF82820ADF838208DF83A6053
:1074400001A944F20204ADF82450ADF83F204222D5
:107450008DF84130ADF842404DF062F9422013B052
:10746000BDE8F083002013B0BDE8F08342207047F0
:10747000886700202001052424020605407DFF289E
:107480000AD010B500F098FD044608B1204610BDA2
:1074900040F066FE204610BD00207047407DFF286A
:1074A0000ED000B583B00DF1070100F0DBFD20B177
:1074B0009DF8070003B05DF804FB4FF0FF30F9E7DB
:1074C0004FF0FF30704700BF407DFF280FD000B560
:1074D00083B001220DF1070100F07AFD20B19DF883
:1074E000070003B05DF804FB4FF0FF30F9E74FF001
:1074F000FF307047407DFF2801D000F0BDBD7047D0
:10750000407DFF2801D000F01FBE0020704700BF63
:10751000F8B50646407DFF281AD017465AB10D46E9
:10752000144600F025FD80B12246707D294600F00A
:10753000EBFD241A01D13846F8BD054440F010FE99
:10754000707D00F015FD0028EED13F1B3846F3E7B3
:107550000020F8BD70B50368174A5B6882B093429B
:107560008DF807101FD10546407DFF2821D00DF171
:107570000706012400F0FCFC88B12246687D3146F4
:1075800000F0C2FD241A02D1012002B070BD0644F1
:1075900040F0E6FD687D00F0EBFC0028EDD1C4F181
:1075A000010002B070BD01220DF10701984702B041
:1075B00070BD002002B070BD11750200002A00F0FD
:1075C00093802DE9F043494991F81C4191F81D91B0
:1075D00091F81E611F46A31C93B081F81C3109F17C
:1075E000020381F81D31731C81F81E318046154657
:1075F0000021422201A84CF0C6F8412F70D998F81A
:1076000004308DF8143005238DF8153024238DF8BF
:107610001630374B069301238DF81C3004238DF868
:107620001F308DF8303040F60223ADF8333069F06A
:107630007F038DF82A302846402309F101058DF893
:107640003C3065F07F032B4D089540F60835ADF8CA
:107650000450082240F202258DF806408DF80E40B5
:107660008DF826408DF82C20ADF808504FF41162AB
:1076700040F209450134E4B2ADF82E20ADF80C50CB
:10768000022240F201258DF81E408DF827408DF82A
:1076900031408DF807208DF812208DF83B20ADF891
:1076A000105040F20752032440F224658DF82B401D
:1076B000ADF82820ADF838208DF83A6001A944F2E1
:1076C0000204ADF82450ADF83F2042228DF841303D
:1076D000ADF842404DF024F8422013B0BDE8F083ED
:1076E000002013B0BDE8F083422070478867002077
:1076F0002001052424020605437DFF2B02D10B4BFC
:107700001A7802B1704710B500F1100408494275AB
:107710004FF0010C204683F800C000F0D7F9214655
:107720000448BDE8104000F0DBB800BF6C670020E3
:10773000D877070088670020407DFF2808D008B56B
:1077400000F016FC00B108BD40F00AFD002008BDA5
:107750000020704701B900B1704700B583B0694699
:1077600000F01CFC009BB3F5966F02D003B05DF8EF
:1077700004FB00F06BFBF9E7084B094A10B44FF427
:107780007A710024C3E901414FF47F4102F12800DE
:1077900099825DF8044B1A60186170477067002089
:1077A000149507000378002B00F08680F0B586461C
:1077B00000207446844606E00CF1010C1EF80C30E3
:1077C0000EEB0C04ABB103F14002D2B2012AF3D9A3
:1077D000F42BF1D81A060DD40CF1010C202808D096
:1077E00021F810301EF80C3001300EEB0C04002B89
:1077F000E9D1F0BD03F0E002C02A3ED003F0F00270
:10780000E02A55D003F0F802F02AD5D103F007069C
:107810000427627802F0C003802BCDD1A37803F057
:10782000C00502F03F02802D42EA8612C4D103F067
:107830003F03042F43EA82132DD1E27802F0C00403
:10784000802CB9D102F03F0242EA8313A3F58033C2
:10785000B3F5801FB0D21E280CF1040CC9DC420025
:107860009C0A0A44C3F30903A4F52054A3F510535A
:1078700021F8104002305380A0E7627802F0C00483
:10788000802C03F01F0397D102F03F0242EA8313DA
:107890000CF1020CA2E7A3F50062B2F5784F8BD28F
:1078A000A3F55842B2F5006F86D30CF1030C95E7AF
:1078B00003F00F060327ACE718467047034690F81D
:1078C00050010B2809D841B100F1480200F1010C28
:1078D00083F850C143F8221070470020704700BF62
:1078E00038B504460846B4F81821B4F81A3161696D
:1078F00005689B1A2D680A449BB294F81C11A8478E
:1079000058B1B4F81831626903449BB2A4F8183135
:10791000538094F81C311371012038BD2DE9F04FCC
:10792000294B8BB09C460446019100F1180B86460A
:10793000BCE80F0005AE35460FC6DCF800303380DA
:107940000FCDAEE80F002B68AEF800300CF1040349
:1079500093E807000DF1080A5746AAE8030003CF91
:1079600013464FF00108A0614FF48079E16184F87B
:107970002030164BC4F818312422C4F814B084F80F
:107980001E81A4F81C91002104F596704BF0FBFEBB
:107990000F4B104AC4F8282140F20941C4E94813AA
:1079A000042384F8503140F2EF23A3804FF4E131F7
:1079B000094884F80680FFF79FFE019800F034FA2A
:1079C00040460BB0BDE8F08F40950700090000016C
:1079D000E8770700F8770700706700202DE9F0438B
:1079E000D0F82C0189B00C4630B10231FFF7DAFE35
:1079F000C0B209B0BDE8F083684600F029FA074636
:107A0000E8B1A646104CE8460EEB80090DF1100CCB
:107A100018F8013B08AA03F00F0602EB131594E8CF
:107A20000F008CE80F006E440EF1040E337CAEF8AC
:107A30000030F14515F8103C2EF8023CE8D17800F2
:107A4000C0B209B0BDE8F08308780700004870476D
:107A500088670020014B5869704700BF8867002085
:107A600010B528B3032814D0164C94F85031834233
:107A700026D9483004F5AA7154F82000FFF792FE89
:107A8000C3B201335B0043F440730F48A4F8523192
:107A900010BD0D490B4CA1F5A970FFF79FFF431CCA
:107AA0005B0043F440739BB20748A4F8523110BD09
:107AB000044CD4F82021A4F854214FF44173F3E787
:107AC000002010BD88670020DA68002010B5044649
:107AD0000248FFF7F3FE207110BD00BF8867002049
:107AE00010B5104C236882B0CBB1186851B913F0AF
:107AF00019FE0121236893F9040002B0BDE810408B
:107B000040F066BE084A00924FF48073ADF804302E
:107B100002AB13E9060013F0A5FD0021EAE702B06D
:107B200010BD00BF1C69002080BA8C0104480068A9
:107B300028B108B5006813F00BFE012008BD70479E
:107B40001C690020084B1B6863B119B1074B402228
:107B50001A607047054B4022C3F88020BFF34F8F57
:107B6000BFF36F8F704700BF1C69002000E100E089
:107B7000024B53F8200000B1C06870472069002014
:107B800010B5094CBDF808E054F8200050B1046964
:107B900044B18C4660461146A4461A467346BDE879
:107BA00010406047002010BD2069002010B5094C2E
:107BB000BDF808E054F8200050B1446944B18C4647
:107BC00060461146A4461A467346BDE81040604719
:107BD00010BD00BF2069002000207047024B1868CC
:107BE00008B190F860007047286900202DE9F8433B
:107BF000224C2468002C3FD01E462C2303FB00435C
:107C00000546D3F8209088461746B9F1000F2FD0CB
:107C100048464CF093FD0828024628BF08222C2332
:107C200003FB0544164B656AA46A002D08BF1D4678
:107C3000144B49464046002C08BF1C464CF070FDD2
:107C400028464CF07BFD10280246294628BF10220A
:107C500038464CF065FD20464CF070FD0428024685
:107C60002146304628BF0422BDE8F8434CF058BDF9
:107C7000DFF814900822D2E7BDE8F88328690020D5
:107C800028780700387807001C78070070B50E4E7A
:107C90003368B3B12C2505FB003504466A691AB177
:107CA0009047336885F832002C2202FB043393F8A6
:107CB000320000B170BD03463A220221204601F095
:107CC00061F8002070BD00BF28690020054B1B68CB
:107CD0003BB14FF02C0C0CFB0033D86A1B8E0860B4
:107CE000138070472869002008B520220023052151
:107CF00001F048F84FF0FF3008BD00BF10B4094C48
:107D000024685CB18446084611461A462C2303FBBE
:107D10000C44E36913B15DF8044B184701205DF88A
:107D2000044B7047286900200A4A10B41468019A6D
:107D300054B18446084619462C2303FB0C44A3681F
:107D400013B15DF8044B18474FF0FF305DF8044B5A
:107D5000704700BF286900200A4A10B41468019ACD
:107D600054B18446084619462C2303FB0C44E368AF
:107D700013B15DF8044B18474FF0FF305DF8044B2A
:107D8000704700BF28690020044B1B682BB12C22D0
:107D900002FB00331B6903B11847704728690020B4
:107DA000054B1B682BB12C2202FB00339B6903B1EE
:107DB00018470120704700BF2869002005F070B9FE
:107DC00000B5154B83B0402283F8272301A9012376
:107DD0000020ADF8043002F061FF4FF08043002432
:107DE000D3F838548DF8004068463FF08DFC0B4BBB
:107DF000019301A83FF0D4FC3FF0DEFCEB0707D471
:107E000000214FF0FF3002F0CDFFFFF78BFAF7E7CC
:107E1000204605F045F9F3E700E100E0BD7D0200F2
:107E2000002004F0C5BD00BF00B5002383B00322CD
:107E3000CDE9002303490448C8223EF039F903B0D4
:107E40005DF804FB3C780700C17D020040F03ABBBE
:107E50004FF0805103464A6E12BA02600A6E12BA9F
:107E600008205A60704700BF0048704760950700BF
:107E700010B51F4C2368D3B101291ED19446127846
:107E8000C2F34112012A14D0022A10D19CF8012019
:107E9000012A24D0022A10D1BCF80430072B06D1C5
:107EA000144ABDE810401389614603F013BE002058
:107EB00010BD9CF80120222A01D0012010BDBCF881
:107EC0000220003A18BF01225A75614603F0EAFD0C
:107ED0002268D369002BF0D0507D9847EDE79A696E
:107EE000002AE4D0BDE810401378614603F0F2BDEB
:107EF0002C6900200C6000202DE9F041044602F0BE
:107F0000B5FE08B9BDE8F08102F0B8FE05460028CC
:107F1000F8D1154E4FF4367304FB03F3F718F978D4
:107F20000029EFD010331E44304602F095FC3F2864
:107F3000E8D9F978284603F0FFFC0028E2D0304663
:107F400002F08AFC3F28F97808D9084A284602EB53
:107F5000C4124023BDE8F04103F00EBD2846BDE841
:107F6000F04103F0F9BC00BFB06900203069002087
:107F700010B5044602F07AFE08B9002010BD02F0E8
:107F80007DFE0028F9D1044B4FF4367202FB043316
:107F9000187900F0010010BDB0690020054B4FF4C6
:107FA000367202FB0033986808609A899B7B8B715C
:107FB0008A807047B069002008B5044B4FF43672D0
:107FC00002FB003002F02EFC08BD00BFC06900209B
:107FD0002DE9F8434FF436744FF6FF7300FB04F4B9
:107FE000DFF87C809A4204F1100528BF1A46454408
:107FF000064692B2284602F041FC074602F036FEE1
:1080000010B93846BDE8F88302F038FE81460028F2
:10801000F7D1A04498F80330002BF2D0284602F0A4
:108020001BFC3F28EDD998F80310484603F084FC68
:108030000028E6D0284602F00FFC3F2898F80310ED
:1080400007D9064A484602EBC612402303F094FCC7
:10805000D7E7484603F080FCD3E700BF3069002033
:10806000B0690020034B4FF4367202FB003002F07F
:1080700075BC00BFC06900202DE9F041044602F044
:10808000F5FD10B90020BDE8F08102F0F7FD0546CE
:108090000028F7D14FF43676DFF8688004FB06F647
:1080A00006F124074744384602F0BCFB0028E9D01B
:1080B000B044284698F8021003F03EFC0028E1D0B6
:1080C0000F4E06EBC41631463846402202F0D6FB6E
:1080D00098F80210044668B103463246284603F079
:1080E0004BFC50B94FF0E023D3F8F03DDB07C9D586
:1080F00000BEC7E703F030FCC4E72046C3E700BF7B
:1081000070690020B069002070B50E4C4FF43673D2
:1081100003FB00444FF6FF739A4228BF1A4692B2FF
:108120000546204602F054FC0646204602F07AFB43
:108130003F2801D8304670BD2846FFF79DFF3046E6
:1081400070BD00BFD469002008B5044B4FF43672EF
:1081500002FB003002F080FB08BD00BFD4690020A4
:1081600070B54FF4367282B0002121484BF00BFB02
:108170001F48FF224FF4E1330821002504460095F3
:10818000427183608173012300F138014FF48072E2
:10819000103002F013FB174A1178C1F3800101235C
:1081A0004FF48072009104F1240004F59C7102F0F8
:1081B00005FB04F50E7101203DF04AFA264606F54E
:1081C0002271044601203DF043FA04B140B94FF05A
:1081D000E023D3F8F03DDB0700D500BE02B070BD50
:1081E000034BC3E90754C3E90C0502B070BD00BFDF
:1081F000B0690020C060002038B5094C206A256BAA
:1082000020B13DF0E1FD0023C4E9073335B1284634
:108210003DF0DAFD00220023C4E90C23012038BD23
:10822000B069002010B50E4C0E4823780022026081
:108230000271DA0709D59B070DD521780A48BDE8F8
:108240001040C1F3800102F095BC103002F072FCC6
:1082500023789B07F1D4044802F06CFCEDE700BFE3
:10826000C0600020B0690020D4690020F0B54B79CF
:10827000022B83B002D18B79022B03D00025284634
:1082800003B0F0BD274FBB783BB14FF0E023D3F8EC
:10829000F03DDB07F2D500BEF0E78B783B700B7842
:1082A000CC1806466178242908BF092507D036E096
:1082B00023781C442B44617824299DB207D1AA421B
:1082C000F6D20020FFF718FE284603B0F0BD0B469B
:1082D000052916D0042BF4D163790A2BF1D1124B66
:1082E000277801930133009302233046E1191A469F
:1082F00003F072FA0028C8D00E3517FA85F5ADB232
:10830000DFE72146304603F0F3FA0028BDD0A3781A
:108310007B7023781C445A1995B26378DAE70B46D0
:108320000925D5E7B0690020B269002038B5137877
:1083300003F06003202B07D194462A4ABCF804308E
:1083400092F800E09E4501D0002038BD9CF8013035
:10835000203B032BF8D8DFE803F02E2A0E02012978
:108360003BD0032925D1204B1BB3BCF802100020C1
:10837000AFF300801DE001292FD0032919D11B4B39
:10838000BCF8024019781A48147111F0040104F085
:10839000010518BF85F0010102F0ECFB154B43B15C
:1083A000C4F3400229460020FFF7D4F901E0012977
:1083B0000DD0012038BD012909D00329F9D10E4B78
:1083C000002BF6D00D490020AFF30080F1E70B4AF7
:1083D0000723614603F07EFBEBE7614603F062FB97
:1083E000E7E700BFB069002000000000C060002087
:1083F000D46900205577020000000000B869002011
:108400002DE9F843364EF2788A420C4607461D465F
:1084100040D0B3788B4212D04FF0E023D3F8F03D38
:10842000DB0735D40020BDE8F8832E4B23B12E485E
:1084300002F008FA002850D00020FFF75DFDB37865
:10844000A34202D00120BDE8F883284B13B10020DD
:10845000AFF300800020FFF70FFE0028F2D1244880
:1084600002F0E0F90028EDD1002DEBD015F03F052A
:10847000E8D1B178384603F05FFA0028E2D0B1784D
:108480002B462A46384603F077FA0028DAD1C3E7AC
:1084900000BEC7E79AB2174906F1100002F098FA39
:1084A000154B002BC1D07379FF2BBED0002DBCD053
:1084B000DFF8408008EB050902E0C845B5D07379C4
:1084C00018F8012B9A42F8D1074802F0BBF90028AE
:1084D000F3D17179AFF30080EFE7AFF30080ABE742
:1084E000B069002000000000C0690020000000000A
:1084F000D46900203069002000000000704700BFF0
:1085000001207047704700BF704700BF044B002236
:10851000C3E90022C3E90222C3E90422704700BF75
:10852000086E002001207047044B0022C3E900229E
:10853000C3E90222C3E90422704700BF086E00208D
:108540002DE9F0414B79032B82B014D1064608790E
:10855000C0EBC0051235ADB295420C4605D8264F8A
:108560007A78002A44D07A7B62B14FF0E023D3F8C6
:10857000F03DDA0704D40025284602B0BDE8F081BA
:1085800000BEF8E70C374FF4A0782278A31859788A
:108590002129EAD1BB60A15C19447B1C0193BB1C5F
:1085A000024600933046032303F016F90028DCD07E
:1085B000A379B978012B04BFE379FB700123BB7168
:1085C000A3783B70BB68B3F80730BB800029D3D0D9
:1085D0000A4A30464244402303F0CEF90028CBD16A
:1085E0004FF0E023D3F8F03DDB07C5D500BEC3E76D
:1085F0004FF08008C9E700BF086E0020886C00209B
:108600002DE9F04392F800C00CF01F0EBEF1010FEF
:1086100083B00AD1844E144692883378D2B2934202
:10862000054606D0337B934213D0002003B0BDE84B
:10863000F083002006224FF00708074686461CF00C
:10864000600C0CD1012900F0B180012003B0BDE81D
:10865000F08312224FF01308C0207746EFE7BCF1F9
:10866000200FE2D16378013B0A2BDED80FF2040C15
:108670005CF823F049870200358702002387020057
:108680002B8602002B8602002B8602002B8602001E
:108690002B860200E5860200BF860200A18602004A
:1086A00001291AD00329D0D1618807EB470706EBCF
:1086B0008706C9B27046B171FFF720FFC5E70129EF
:1086C000C3D1618807EB470706EB8703090A7046A9
:1086D000D971FFF715FF0028A7D02146284603F0DF
:1086E000E1F9B2E7012900F08A800329ADD1618860
:1086F000E4884E4B402C4FEA11220344204628BF09
:10870000402011F0FF0107D0012C05D91C788C42C4
:1087100002D10138013380B200907046FFF746FA6B
:1087200093E7012991D10B4632442146284603F0B4
:10873000D1F98AE7012988D10B4606EB08022146C8
:10874000284603F0C7F980E701297FF47EAFB4F82B
:1087500006906388354EB9F1400FCC4628BF4FF0E4
:10876000400C13F0FF084FEA132200EB060751D02C
:10877000B9F1010F4ED90CF1FF3C06F800801FFA49
:108780008CFC0E467B1CCDF800C041467046FFF7BE
:10879000F7F933189BB2002B3FD14FF0E023D3F809
:1087A000F03DDB077FF541AF00BE3EE76378062B67
:1087B0007FF43BAF63881B0A212B10D0222B7FF460
:1087C00034AF7046FFF7D4F907EB470706EB870392
:1087D00002469B882146284603F07CF935E707EBE3
:1087E000470706EB87039A68002A3FF41EAF137809
:1087F0002146284603B0BDE8F04303F06BB9E38897
:10880000402B3FF612AF094A21460244284603F0A6
:1088100061F91AE73B460026B5E73A462146284665
:1088200003F058F911E700BF086E0020886C0020A3
:1088300070B52B4C8C461146A27894F801E0624545
:1088400082B0054612D0F44529D0A27B94F80DE001
:10885000624539D0F4453ED04FF0E023D3F8F03DE7
:10886000DB0700D500BE002002B070BD802640228C
:108870000020E6459BB215D01A4A1644D1B90093A0
:1088800002223346FFF792F9A17840233246284668
:1088900003F072F80028DFD0012002B070BD402242
:1088A00000209BB20F4C144449B91A462146FFF7E9
:1088B00029FEF1E732460221FFF726FEE4E72246D1
:1088C0000121FFF721FEE7E70C344FF4A0764FF4C7
:1088D00080720120CDE74FF480720120E1E700BFF4
:1088E000086E0020886C0020F8B54FF4EC7400FB93
:1088F00004F4184E04F1240535440746284601F0D7
:1089000091FF08B90020F8BD26440020717803F0DB
:1089100013F80028F6D0104901EBC717394640225A
:10892000284601F0ABFF7178044668B103463A4629
:10893000002003F021F850B94FF0E023D3F8F03DC8
:10894000DB07DFD500BEDDE703F006F8DAE72046F7
:10895000F8BD00BF206E0020F86F002070B54FF406
:10896000EC7282B000211A484AF00DFF1849002429
:10897000084605460123802238310094103001F06A
:108980001DFF284605F1B801012380220094243000
:1089900001F014FF05F59C7101203CF059FE2E46B4
:1089A00006F5C471054601203CF052FE40B94FF077
:1089B000E023D3F8F03DDB0700D500BE02B070BD68
:1089C000034BC3E90745C3E90C0402B070BD00BF07
:1089D000206E002038B5094C206A256B20B13DF08F
:1089E000F3F90023C4E9073335B128463DF0ECF92B
:1089F00000220023C4E90C23012038BD206E002092
:108A000010B5084C002304F11000C4E90033C4E998
:108A1000023302F08FF804F12400BDE8104002F0A8
:108A200089B800BF206E00202DE9F0434B79012B5F
:108A300083B004D00025284603B0BDE8F0838B79CD
:108A4000012B0C4606461AD049780429F2D100259C
:108A5000032BEFD1E379002BECD1DFF8F09099F8FC
:108A6000013023B999F80280B8F1000F1FD04FF000
:108A7000E023D3F8F03DDB07DCD500BEDAE7CB79A5
:108A8000002BD7D10D782C446378242B08D1AA422F
:108A9000D0D323781C441D446378242BADB2F6D088
:108AA000042BC7D16379012BC4D1A379D0E7A37874
:108AB00089F80030277821793D44ADB2274431B997
:108AC00023E03B7841451D441F44ADB21DD9AA4265
:108AD0001BD37B78052BF4D139463046019202F046
:108AE00007FF019A0028C2D0BB78D90914BF89F8C2
:108AF000013089F802303B78217908F101081D44E2
:108B00005FFA88F81F44ADB2DBE70E4801F0A4FE1F
:108B10003F2890D999F80210002002F00DFF00289C
:108B200089D0084801F098FE3F2899F8021005D92D
:108B3000054A4023002002F01FFF7CE7002002F0DE
:108B40000BFF78E7306E002038700020206E002088
:108B50000020704770B52B4DAA788A421C4612D06F
:108B60006B788B4208D04FF0E023D3F8F03DDB0761
:108B700000D500BE002070BD06460020FFF7B4FE01
:108B800018B3012070BD9AB21F4905F1100001F021
:108B90001FFF1E4B13B10020AFF300801C4801F0F3
:108BA0005BFE3F28EDD9A978002002F0C5FE002821
:108BB000E7D0174801F050FE3F28A9781DD9124A86
:108BC0004023002002F0D8FEDBE705F1240001F08D
:108BD00029FE0028D5D1002CD3D014F03F04D0D1E9
:108BE0006978304602F0A8FE0028CAD0697823468A
:108BF0002246304602F0C0FEC3E7002002F0ACFE81
:108C0000BFE700BF206E0020387000200000000089
:108C1000306E002030B5334CE28AA36887B0054639
:108C200022B152BA92B2B3FBF2F292B2A06BD4F874
:108C300011101B1AB3F5007F28BF4FF40073009387
:108C400009BAB0FBF2F302FB13021944607B264B16
:108C5000FFF76AF8011E1BDB94F82E4009D08BB297
:108C6000214A2146284602F087FE002831D007B06D
:108C700030BD072303A88DF80C508DF80D308DF80A
:108C8000104005918DF8111002F086FC07B030BD40
:108C900043F60221A268A36BA187002184F83E104D
:108CA0000121D31A84F82C100221A36284F8301019
:108CB000002ADCD0002BDAD0237BDB0914BF94F828
:108CC0002E1094F82F10284607B0BDE8304002F06F
:108CD00097BE4FF0E023D3F8F03DDB07C7D500BEC9
:108CE000C5E700BF787200207870002038B5224BAD
:108CF000224C05461BB1607BFFF752F8C0B1A16B57
:108D0000A3681F4A5B1AB3F5007F28BF4FF40073B6
:108D100094F82F109BB2284602F02EFE00B138BD09
:108D20004FF0E023D3F8F03DDB07F8D500BE38BDA7
:108D300042F20771A268A36BA1870121D31A84F8BC
:108D40002C10022184F83E00A36284F83010002A1F
:108D5000E5D0002BE3D0237BDB0906D094F82E105E
:108D60002846BDE8384002F04BBE94F82F10284644
:108D7000BDE8384002F044BEA17D020078720020B8
:108D800078700020044880F83C1080F83D2080F87E
:108D90003E300120704700BF787200200248402218
:108DA00000214AF0F0BC00BF787200200248402247
:108DB00000214AF0E8BC00BF787200204B79082BF4
:108DC00002D18B79062B01D000207047CB79502B34
:108DD000FAD1162A07D84FF0E023D3F8F03DD9078F
:108DE000F2D500BEF0E730B5194D8B7883B085F829
:108DF0002D300B78194405F12E03019305F12F0353
:108E0000009302231A46044602F0E6FC48B94FF0EC
:108E1000E023D3F8F03DDA0700D500BE002003B010
:108E200030BD4FF0000C0B4A95F82F1085F830C07C
:108E30001F23204602F0A0FD08B11720EFE74FF0F6
:108E4000E023D3F8F03DDB07F7D500BEF5E700BF20
:108E50007872002078700020012901D0012070472D
:108E600070B51378144603F07F02022A82B00546DB
:108E700022D003F06003202B02D0002002B070BD8E
:108E80006378FE2B35D0FF2BF7D16388002BF4D10C
:108E9000B4F806C01FFA8CF3002BEED13F4A2146EE
:108EA0002846C2E90D3382F83030A2F83CC082F87F
:108EB0003E3002F0F7FD1AE06278012AD9D16388CA
:108EC000002BDAD1354EA38896F83020042AD9B287
:108ED0004ED096F82E408C4228D096F82F408C42E7
:108EE00005D122B9214602F07DFD002843D00120A2
:108EF000C4E76388002BC0D1E288012ABDD1284B8A
:108F00008DF8072083B1FEF769FE0028B5D0431E17
:108F10005FFA83FC01230DF10702214628468DF8F4
:108F200007C002F0D7FDE2E79C46F3E7022ADED154
:108F3000B26BB368DFF86CC09B1A0322B36286F889
:108F4000302006F120030FCBACE807006246214633
:108F500002F80C3928460D2302F00EFD0028C6D178
:108F60004FF0E023D3F8F03DDB0786D500BE84E761
:108F700002F046FDBBE72146284602F05FFD0028CF
:108F8000B5D10024074A96F82F1086F830401F23E9
:108F9000284602F0F1FC0028A9D1E1E77872002010
:108FA000DD7B0200787000202DE9F04FA94C94F889
:108FB0003050012D8FB006461F4600F08580032DEE
:108FC0008C465ED0002D56D194F82F308B4254D170
:108FD0001F2F40F0C180DFF88C829F4BD8F8002013
:108FE0009A4240F0B98047460FCFA646AEE80F0040
:108FF000914697E80F00AEE807002EF8023B94F880
:109000000FA01B0C8EF80030944B23624FF0010B25
:1090100063686362BAF1280FC4E90D9584F830B033
:10902000A56284F82C5000F02181BAF12A0F00F0DB
:10903000D882B9F1000F00F04181237BDB0940F0B9
:109040003D81B9F5007F40F22C83012384F82C3058
:1090500094F83C30C4F82890022284F8302023B9D8
:1090600042F20502A28784F83E306146304602F0A3
:10907000C7FC94F83050022D3BD001200FB0BDE862
:10908000F08F94F82E308B42F7D10D2FF5D1E37B82
:10909000282B00F09E822A2B00F09382704B23B184
:1090A000607B04F10F01AFF30080002084F83000F2
:1090B0006C4A94F82F101F23304602F05DFC002804
:1090C0003FD094F83050D6E7B3F5007F39D8E27B33
:1090D000A36B282A4ED02A2A00F08A80227B3B44A8
:1090E000D209A3635AD0626B9A424DD8022384F806
:1090F000303094F82E10304602F0A0FC0028BCD18D
:10910000A368A26B94F82E70934207D9217BC909FA
:1091100004D03946304602F073FCAEE79B1AA362D6
:10912000514A504D032384F830300FCA07C52A46F0
:10913000394602F80C3930460D2302F01DFC002898
:109140009BD14FF0E023D3F8F03DDA0700D500BE05
:1091500000200FB0BDE8F08F94F82E1004233046A5
:1091600084F8303002F04CFC94F82F10304602F0B6
:1091700047FCEDE7626B3B449342A363B6D2FFF733
:1091800049FD94F8305076E74FF0E023D3F8F03DF6
:10919000DB0796D500BE94F830506CE7A38E314AB9
:1091A000607B04F10F01FEF79FFD0028A36B9ADAA4
:1091B000A26894F83C0084F82C50D11A0225A162D0
:1091C00084F8305020B984F83E0042F20500A087B0
:1091D000002A88D0002986D0237BDB0914BF94F8AD
:1091E0002E1094F82F10304602F00AFCA36B7AE799
:1091F000E28A2AB152BA92B2A168B1FBF2F18AB204
:109200000097D4F81110B3FBF2F009BA02FB103248
:109210000144144B607BFEF79FFD0028C0F21A82C8
:10922000874240F2F7813F1A002840F0548294F8B8
:109230002F308DF814600722002105A88DF8152025
:109240008DF8183007978DF8191002F0A5F994F8E9
:10925000305010E778720020555342435553425323
:10926000000000007870002098720020E38AB9F1B5
:10927000000F00F09181227BD20900F04782002B81
:1092800040F0FE81012384F82C3094F83C30C4F87F
:109290002890022284F8302043B942F20502A287C6
:1092A00084F83E30237BDB093FF4DFAE94F82E10C8
:1092B000304602F0A5FB94F83050DCE6657BBAF14D
:1092C000250F27D8DFE81AF06101260026002201C9
:1092D000260026002600260026002600260026005E
:1092E0002600260026002600260026000101260072
:1092F000260026002600260026002600E600D500CF
:1093000026002600A900260026002600260084004C
:109310002600580094F83C30002B40F00A82284682
:10932000C34AC4491FFA89F3FEF7DEFC051EC0F2EA
:109330008780002D34D1A368002B3FF4D7AEA06BFB
:1093400094F83C2001211B1A84F82C100221A362FE
:1093500084F8301022B942F20501A18784F83E203A
:10936000002B3FF4C6AE237BDB099FD194F82F106E
:10937000304602F045FBA4E604AA284605A9FEF7FC
:10938000A5FC059B002B00F0B681BDF81020002A3B
:1093900000F0B181013B1BBA12BAC8E900320825BE
:1093A000A368002B40F08881A36B94F83C205B42BB
:1093B0000121A362022384F82C1084F83030002AA3
:1093C0007FF497AE42F20503A38784F83E2090E62F
:1093D000002305AF05930DF10E02C7E901332846BE
:1093E00004A9FEF773FC049A002A00F08481BDF8FA
:1093F0000E30002B00F07F815BBAADF81E300823E1
:1094000012BA8DF81730022306928DF81C3097E8B7
:1094100007000C2588E80700C2E7874B002B8AD09D
:10942000227DE17C2846AFF30080002883D194F8A8
:109430003C302BB943F602220023A28784F83E3049
:10944000D4F80890A36B94F83C200121A9EB030306
:1094500084F82C100221A36284F8301022B984F819
:109460003E2042F20502A287B9F1000F3FF441AE5F
:1094700076E7724B002B3FF45EAFE17C2846C1F3E8
:10948000400301F001020909FEF738FC00287FF4CF
:1094900052AFCCE7059B03F4000343F003030593AD
:1094A000674B002B00F06C812846FEF779FC0346E1
:1094B0009DF8162083F0010363F3C7128DF8162080
:1094C000059BC8F8003004256AE74FF020335D4A59
:1094D00005922846CDE90733CDE90A3307A9099358
:1094E0000D930C9309AA0DAB1F2505AF0695FEF74A
:1094F0007DFB0FCFDFF838C1ACE80F000FCFACE831
:109500000F003B68CCF80030242549E794F83C1064
:10951000B4F83D20DFF818C1DFF834E14FF0000364
:109520004FF0000861F30303CDF814808DF8163076
:10953000F0238DF814300A23CDF81880CDF8208060
:10954000CDF81C80ADF82020ADF824808DF81B30BC
:1095500005AF0FCFACE80F003B68ACF80030BEF1B0
:10956000000F00F007812846ACF110014FF40072A3
:10957000AFF30080051EA4F83C8084F83E80BFF65F
:10958000D8AE657BD4F83490C9E62846FEF77EFB5A
:1095900000287FF4D0AE4AE7002B3FF4A7AD94F843
:1095A0003C300222002184F82C20A16284F8302073
:1095B000002B7FF49EAD42F20502A28784F83E3074
:1095C00097E5214B002B3FF470AD607BFEF7DCFB91
:1095D0006BE51E4B002B3FF468AD607BAFF3008062
:1095E00063E5E38AB9F1000FD6D0227BD20940F0BF
:1095F000B480002B40F0AB80022284F8302094F835
:109600003C20C4F82890012184F82C10002A3FF453
:1096100044AE2AE5D4E90D233B449342A363BFF44F
:1096200065AD3046FFF762FB94F8305023E500BF8C
:10963000787000208772002000000000FD7C02008E
:10964000A17D020000800202897D0200000000006E
:1096500000000000A36BA26843F60221A18700214D
:109660003B4484F83E100121A36384F82C10D31AE4
:109670000221A36284F83010002A3FF43AAD6FE66D
:109680005BBA9BB2994530D294F83C30C4F828902C
:10969000022284F82C2084F83020002B7FF402AEC4
:1096A000FBE5384A1FFA89F36146304602F064F957
:1096B00000287FF406AD44E59D4228BF1D46314A8F
:1096C00094F82E106563ABB2304602F055F90028CD
:1096D0007FF4F7AC35E5A36B0344A363294B3A460B
:1096E000191818464AF036F8A1E53046FFF792FA05
:1096F00094F83050BFE494F83C30002B7FF4A0AED7
:1097000043F60222A28784F83E3099E694F83C2082
:10971000C4F82890022384F82C3084F83030002AD2
:109720007FF4A3AC42F205020023A28784F83E3006
:10973000B8E50223012284F8303084F82C20C4F8E4
:1097400028904B46B9F1000F3FF4D3AC08E65BBA62
:109750009BB29945BFF465AF96E794F83C30C4F8E6
:109760002890022284F82C2084F83020002B3FF42B
:1097700094AD9BE5A4F83CE084F83EE012250FE6AA
:10978000012395E67870002070B5134E134D1248F2
:1097900084B04FF4AE72002149F0F5FF402400235D
:1097A00006F58E72CDE90254CDE9002419461A4619
:1097B00006F1B00003F030FF2544002306F17001EC
:1097C00030460091CDE9025401220194194604303B
:1097D00003F022FF04B070BD38730020B87200207F
:1097E00008B5054803F042FF034BA3F1AC0003F0BA
:1097F0003DFF012008BD00BFE873002038B5074CCD
:109800002046002500F8B85B01F094F904F10C0043
:1098100001F090F984F8B150657138BD38730020BB
:109820004B79FF2B01D000207047F0B5394B0C4627
:1098300093F8B11083B0002939D15979002936D174
:109840002578A6182544A2781A70AE4207460DD98D
:109850002A782A44964209D36978042906D00B292C
:1098600004D0052926D096421546F1D8281B80B28F
:1098700003B0F0BD284801F05DF92849AA784A7084
:10988000AA880878C2F30A02A2F50072B2FA82F23C
:10989000520962F341000870384603F077FFB8B907
:1098A0004FF0E023D3F8F03DDB0700D500BE0020E9
:1098B00003B0F0BD2946384602F01AF8154B0028CF
:1098C000EED0AA78D20906D193F8B120002AD1D0DF
:1098D0002A782A44C7E75A79002AF9D11048019218
:1098E00001F028F9019A0B4B1046AA785A71AA8800
:1098F0001979C2F30A02A2F50072B2FA82F2520991
:1099000062F341011971191D03F0FAFE2A782A4405
:10991000A9E700BF38730020F0730020E87300202F
:109920004473002070B51B4C94F8B1C08C450646BA
:109930001D4611D063798B4201D0002070BD164BBB
:109940001BB1A9B20020AFF300801449304603F0E8
:10995000D7FEC8B1012070BDB4F8BC3063B9104B5C
:1099600023B11049AAB20020AFF300800E4930465F
:1099700003F00CFF0120EEE7D4F8B410AAB204F112
:10998000B80001F025F8EAE704492A46304603F01A
:1099900079FEDFE738730020000000003C730020F0
:1099A00000000000B8720020E873002070B50E6857
:1099B000B1F804C0B44466450D46B1780BD20B46ED
:1099C0008B42344603D10DE06378042B05D0237815
:1099D0001C44A445F8D8002070BDA445FBD9A37849
:1099E0008B42F4D1E3789A42F1D1A445F3D9237D97
:1099F000012B1DD82379BBB1012BECD12378E2894F
:109A0000617A1A44194422442144914204D3E2E782
:109A10000B7819448A42DED94B78052BF8D18A425B
:109A2000D9D901F065FF18B1A41BEC80012070BDED
:109A30004FF0E023D3F8F03DDB07CCD500BE00208B
:109A4000CAE700BFC288002A00F0CD8070B5037855
:109A50006D4891F802C003EB830403EB4403C05844
:109A600083181C7BA4453BD8BCF1000F06D1012C08
:109A700000F2B7804FF0010C81F802C001248C6025
:109A8000C1F80E404C77A4F1FE34C1F81E406FF0CF
:109A90003F048C766FF00304CC766FF064040C778F
:109AA0004FF400644C84825CB3F80D0010441844F9
:109AB0001344834214D2554C93F802E0BEF1100FC8
:109AC0000AD824FA0EF2D50706D5DA78944503D1E0
:109AD00012E05A78242A0CD01A7813449842F8D805
:109AE0004FF0E023D3F8F03DDA0700D500BE0020A8
:109AF00070BD8342E0D3F3E78342F1D0BEF1060F9D
:109B000009D0BEF1100F06D0BEF1040FEFD1002234
:109B10004A7301220A73CD781A799542E0D81DB9AB
:109B2000012A5ED80125CD701A781A448242D7D214
:109B3000374E92F802C0BCF1110F07D826FA0CFC80
:109B40001CF0010F02D0D478A54211D01478224421
:109B5000904205D8C4E792F800C062449042BFD951
:109B600092F801C0BCF1240FF5D19042E1D8B7E7DB
:109B70008242B5D0D1F8120088B9BEF1060FB2F812
:109B8000050039D0BEF1100F36D0B2F807405B7D2A
:109B900004FB00F003FB00F0C008C1F812004C68A1
:109BA00054B9537E012B1CD8D2F81A401BB9D2F8F5
:109BB0001E30A34215D14C6042F20F739C428FD9E4
:109BC000144A431EA2FB0424620B03EB5433B3FB81
:109BD000F2F30233B3F5807F28BF4FF48073C1F8EE
:109BE0001630012070BD4FF0E023D3F8F03DDB07C5
:109BF00000D500BE00207047B2F8073003FB00F02C
:109C00000001C008C9E700BFE8750020501001003E
:109C1000A00002005917B7D12DE9F04F0E4683B0CE
:109C200033785E490190914603EB830203EB4203D4
:109C3000CF5833897BB13B44DA7802F00302012A22
:109C400000F09E80738933B13B44DA7802F003025E
:109C5000012A00F09B807488B58800233C44B381BE
:109C6000F38133617361A2783D44AC4238BF13463F
:109C700009D29A4203D10FE06378042B07D02378EE
:109C80001C44A542F8D8002003B0BDE8F08FA542DF
:109C9000F9D9A3789A42F2D1E3789945EFD1A54258
:109CA000F1D994F804A0BAF1020F3AD8E31BF3807B
:109CB000B9F1000F44D023781C44BAF1000F5CD0F6
:109CC00006F106084FF0000BA54206D829E0042B48
:109CD00027D023781C44A54223D96378052BF6D1DD
:109CE000A5421ED9E37803F00303B9F1000F01D0B8
:109CF000012B1ED0022BC6D10198214601F0F8FDA0
:109D000078B1E31B28F8023F0BF1010321789A4553
:109D10004FF0010B0C44D7D8B9F1000F2DD1012021
:109D2000B2E74FF0E023D3F8F03DDB07ABD500BE40
:109D3000A9E7A388B169C3F30A038B42DCD2A2E787
:109D4000737F012B05D123781C44BAF1000FB7D1E2
:109D5000E5E706F11E03494686F81D90A6F818901F
:109D6000A6F81A903022184649F00DFD01463046FB
:109D7000FFF768FE0028E6D185E702237377CEE778
:109D800000223281997801F067FE5BE70022728140
:109D90009978019801F060FE5DE700BFE87500204A
:109DA000044B054800214E22C3E90011C3F80710F7
:109DB00049F0E9BCE8750020987500200120704743
:109DC000044B054800214E22C3E90011C3F80710D7
:109DD00049F0D9BCE8750020987500202DE9F84FAE
:109DE0004B790E2B03D18B79012B0C4602D000202E
:109DF000BDE8F88FCB79012BF9D1514F16463A685F
:109E00003AB14FF0E023D3F8F03DDB07EFD500BEC9
:109E1000EDE7396039460546BE80FFF7C7FD0028EB
:109E2000E5D0F9883B68A0780B44A219944293F8D6
:109E30001490234616D219780B449A4208D811E0A0
:109E4000BCF10B0F09D093F800C063449A4209D9C2
:109E500093F801C0BCF1040FF2D19A4202D999786B
:109E60008142E8D01E1BB9F1000F38D0DFF8D48052
:109E7000DFF8D4B0B8F802E04FF0000ABEF1000FEE
:109E8000BFD11E1B0BF801EF88F800E01FFA86FE19
:109E9000A8F802E09A42987888F801A0314698BF65
:109EA000704608D80DE093F801C0BCF1040F19D03A
:109EB000BCF10B0F16D01E7833449A42F3D81E1B08
:109EC000B0B2A8F80400002088F81D00BAF1000F15
:109ED0000ED00AF1010A5FFA8AF18945CED8B0B2F4
:109EE000B88085E79A42EAD99E788642E3D0E6E7D1
:109EF000B9F1010FEDD114FA81F114FA86F4A142FF
:109F00008A780AD213469A4203D112E04B78042B86
:109F10000BD00B7819448C42F8D80A490022284605
:109F2000FFF77AFE0028DAD161E78C42F5D98B7809
:109F3000E9E7CB78012BECD18C42D0D1EDE700BF23
:109F4000E875002098750020EF7500202DE9F04F8E
:109F50001446127802F01F05012D8FB018D1A24DC2
:109F6000B4F804E02F6806465FFA8EFC17B1BB78A0
:109F700063454BD09D4F7B8853B197F8008008EB29
:109F8000880208EB4202AA5813449B78634503D029
:109F900000200FB0BDE8F08F2378C3F3411913F010
:109FA000600F484600F0C38001282CD15FEA1E20D4
:109FB00029D163881B0A022B00F04A81062B00F08E
:109FC0003C81012B18D17B7F03B1787794F801C0D5
:109FD000BCF1010F00F0C7810CF17F03DBB2062B4F
:109FE0000AD8ACF1820BBBF1050F00F23B81DFE830
:109FF0000BF07575757B8D754FF0E023D3F8F03D50
:10A00000DB0700D500BE07233B77C1E712F0600FE6
:10A01000C2F3411828D0B8F1010F22D15FEA1E2007
:10A020002ED163881B0A012B00F0AC80022B11D1CA
:10A030006378812B00F02781862B0BD101291BD15E
:10A040006B4A01232146304601F044FDA0B9FF23AD
:10A050006B729DE74FF0E023D3F8F03DDE0700D5AB
:10A0600000BE07236B7293E763780A2B23D00B2B78
:10A07000F0D1012900F0A58000236B72012088E750
:10A08000EA88BB18B95CDA89114419448B420ED2B4
:10A090009A78023A052A06D8DA78824203D106E095
:10A0A0005A78242A40D01A7813449942F8D80023C9
:10A0B00001206B726DE70129DED1E388012BC6D147
:10A0C000EA883A442146D2788DF8082002AA01F0A5
:10A0D00001FD0028BBD085F80980CFE7012900F0F9
:10A0E000528100233B77C9E70129FAD1E388022B8B
:10A0F00009D13022ADF808202146304602AA01F0ED
:10A10000E9FC0028EDD1FF233B7741E70129E8D1A5
:10A11000E388012BF7D1374A01232146304601F06D
:10A12000D9FC0028DDD1EEE79942B1D8BFE76378CA
:10A130000A2B12D00B2B7FF45FAF0129D1D162889B
:10A1400039463046FFF768FD0028DCD0214630460E
:10A1500001F0A8FC87F81C9090E70129C1D1E388A1
:10A16000012BD0D1FB88002BCDD01A443046D278B9
:10A170008DF808200B4602AA214601F0ABFC00280E
:10A18000E8D1C0E76378812B00F0A080862B00F037
:10A190008D80012B7FF45EAF012900F09A800229A7
:10A1A0007FF46AAF144B002B3FF466AFA97A00200E
:10A1B000AFF300800346DBB2B0FA80F040096B7267
:10A1C000E7E6E388002B7FF442AFEB88FA181179B9
:10A1D00019B3F85CD189537A0144034413440A4407
:10A1E000934210D3B3E000BFE875002098750020BB
:10A1F0009A950700999507000000000019780B4414
:10A200009A4240F2A48059780529F7D19A4240F247
:10A210009E809978304601F01FFC0027EF8062880D
:10A22000AE493046FFF7C2FB00283FF410AF21468D
:10A23000304601F037FC6F7220E76378812B27D01E
:10A24000862B7FF4D9AE01297FF44BAFA44A63E794
:10A250006378852B3FF448AF41D8012B52D0812B36
:10A260007FF4CAAE01297FF43CAFE388002B3FF4B2
:10A270004AAF9C4A30232146304601F02BFC00288F
:10A280007FF42FAF3FE701297FF4F6AE964AD8E678
:10A2900001297FF426AF0B4607F11C022146304608
:10A2A00001F018FC00287FF41CAF2CE701297FF493
:10A2B000E3AEE388012B7FF4CAAE8C4A21463046D8
:10A2C00001F008FC00287FF4D7AEC0E601297FF436
:10A2D000D3AEE388012B7FF4BAAE854AB1E6862B74
:10A2E0007FF48AAE01297FF4FCAEE388012B7FF472
:10A2F0000AAF7E4A2146304601F0ECFB00287FF48D
:10A30000F0AE00E70129B4D002297FF4EAAE754C23
:10A310002146A4F11E00FFF795FB002830D0754BB5
:10A320007A6BBA6143B1797814F81E0C2246AFF308
:10A33000008000287FF4D5AE6F49002302204FF43F
:10A340008072C7E903337B610880BA8396E64FF0D9
:10A35000E023D3F8F03DDF077FF579AE00BEFF23A1
:10A3600000206B7215E6012983D002297FF4B9AE73
:10A370005C49A1F11E00FFF765FB00287FF4B1AE38
:10A3800008233B7704E6E388002B3FF4BCAEDFF8FC
:10A3900054A1CDF804800DF108098846DAF80C3094
:10A3A000DAF80000DAF80410DAF80820CE46AEE851
:10A3B0000F00524B0AF1100A9A45F146EED19DF872
:10A3C0000A204146DDF8048072B9BCF1830F00F029
:10A3D0001F81BCF1870F00F0F780BCF1820F00F005
:10A3E000F38008233B77D3E59DF80B00002840F06D
:10A3F0009780F888002800F002810B2303FB08F304
:10A40000DFF8FCE0ED582B18285CB3F80D5005443C
:10A410001D4403449D4211D9987810280AD82EFA79
:10A4200000F0C00706D5D878824203D107E05878FB
:10A430002428EFD0187803449D42F8D82B46BCF16D
:10A44000830F61D0BCF1870F3BD0BCF1820FC8D124
:10A4500001208DF80B101A78DFF8A8C01A44954235
:10A4600011D9917811290AD82CFA01F1C90706D51A
:10A47000D178884203D107E051782429EFD01178B0
:10A480000A449542F8D82A46997806293FD01029DF
:10A490003DD00429A5D1597DB2F80530B2F8072086
:10A4A00002FB03F301FB03F3DB08CDF81A30302382
:10A4B00002AA2146304601F00DFB00287FF411AEC0
:10A4C00021E69A78062A06D0102A01D0042A88D1DB
:10A4D000997D0846BDE799790846BAE7E8750020F6
:10A4E0009A950700B6750020F17500209995070030
:10A4F000F27500200000000094740020E675002032
:10A5000050100100A000020019790846A1E7B2F836
:10A510000530B2F8072002FB03F31B01DB08C4E798
:10A52000039B002BC3D1F988002968D00B2303FBC0
:10A5300008F8DFF894C155F808506B18695CB3F857
:10A540000D500D441D440B449D4211D9997810299A
:10A550000AD82CFA01F1C90706D5D9788A4203D165
:10A5600007E059782429EFD019780B449D42F8D898
:10A570002B461A78524913449D4211D99A78112AD0
:10A580000AD821FA02F2D20706D5DA78904203D12E
:10A5900007E05A78242AEFD01A7813449D42F8D85D
:10A5A0002B46BBF1050F3FF61CAF01A252F82BF072
:10A5B00097A602007BA6020051A60200E3A30200B8
:10A5C000E3A3020029A6020001238DF80A304FF010
:10A5D00001130125CDE904530023ADF818304FF6DF
:10A5E000C043ADF8223040F29B13ADF82430354B18
:10A5F000CDF826304FF40063ADF82A3057E74FF01E
:10A60000E023D3F8F03DDA077FF5EBAE00BEE8E6D5
:10A61000FA88002ADBD00B2303FB08F3EB58134422
:10A620001B7B8DF80A30D2E7D3F8151042F2107375
:10A63000B1FBF3F30391D1B1DDF81A208BB9931C70
:10A64000B3F5807F28BF4FF48073CDF81E302EE71E
:10A650005A7E62B9D3F8221042F21073B1FBF3F3C1
:10A66000E8E7013A1A44B2FBF3F30233E8E70023C8
:10A67000ADF81E30ADF8203019E75A7ECAB1053268
:10A6800003EB8202D2F80210D3F81A3042F21072B1
:10A69000B3FBF2F3CEE75A7E72B1053203EB8202CE
:10A6A000D2F80220D3F81A1042F21073B2FBF3F37F
:10A6B000C0E7D3F81E10E7E7D3F81E20F2E700BF8B
:10A6C000A000020003010101501001002DE9F04F2C
:10A6D000364C238983B063B12278354F02EB820C6C
:10A6E00002EB4C0C0E4657F80CC063449B788B422F
:10A6F0000AD04FF0E023D3F8F03DDA0700D500BED2
:10A70000002003B0BDE8F08FD4E904379F420FD397
:10A710000021284BE16000200021C4E904011BB1A5
:10A7200061781046AFF30080012003B0BDE8F08FE0
:10A73000054601F001F90028E2D0DFF87CA0D4F84A
:10A7400014909AF800002369D4F818B0A0EB090718
:10A750001F44BB45D84628BFB84640450ED94FF0E8
:10A76000E023D3F8F03DDB071ED40023124A314624
:10A77000284601F001F90028D6D1BAE7E168A8EB34
:10A78000000249445044019249F0CAFF019ABB4576
:10A790004A44626105D39AF8013043F002038AF813
:10A7A00001301FFA88F3E1E700BEDEE7987500206C
:10A7B000E875002000000000947400202DE9F041AD
:10A7C000B2F5004F9DF8188029D80446C068164697
:10A7D0000F461D4618B14FF0FF313BF079F9206963
:10A7E00018B14FF0FF313BF073F9C5F30E05E06887
:10A7F0002760002345EAC8356381A680E580238170
:10A8000018B11A4619463AF077FD206920B10023A5
:10A810001A4619463AF070FD0120BDE8F08100208B
:10A82000BDE8F08103894289808892B29BB293424D
:10A8300036BFC2EB40029B1A9B189BB2984228BFBE
:10A84000184670470289438990B29BB2C01AB0FA89
:10A8500080F04009704700BF03894289808892B226
:10A860009BB2934236BFC2EB40029B1A9B189BB22D
:10A87000984286BFC01A80B2002070472DE9F04789
:10A88000064600698846914618B14FF0FF313BF00B
:10A890001FF933897489B5889BB2A4B2A34236BF2D
:10A8A000C4EB45071F1BFF18BFB2002F4DD0BD42A0
:10A8B00043D3B94528BFB946A5421FFA89F703D843
:10A8C000641BA4B2A542FBD9B6F806A031682B1BC5
:10A8D0009BB2CAF30E029F42924602FB041126D994
:10A8E00013FB02F31FFA83F94A4640467D1B49F0E9
:10A8F00017FF621912FB0AF2316808EB090092B2E5
:10A9000049F00EFF7289B58892B2D3199BB29A4270
:10A910001DD96A009B1A9BB23069738120B1002354
:10A920001A4619463AF0E8FC3846BDE8F08707FBBE
:10A9300002F2404649F0F4FEE4E7AB422CBF5B1B59
:10A940005B199CB274812F46B3E773899BB2B3EB5A
:10A95000450F4FEA4502DFDBDCE700BF38B50446B0
:10A9600000690D4618B14FF0FF313BF0B1F8218975
:10A970006389A28889B29BB2994236BFC3EB420079
:10A98000C81A401880B200B3824209D291422CBF4B
:10A99000891A89188BB29A42638103D89B1A9BB299
:10A9A0009A42FBD9E2882168C2F30E02284602FBD4
:10A9B000031149F0B5FE0125206920B100231A4694
:10A9C00019463AF099FC284638BD0546F4E700BF21
:10A9D0002DE9F04F174683B0002A75D00646C068AF
:10A9E000894618B14FF0FF313BF072F8F379B6F8B1
:10A9F00008807289B588DB091FFA88F892B23CD1C9
:10AA0000904536BFC2EB4502A8EB0202424492B227
:10AA1000AA425ED2AA1A92B2BA4228BF3A4697B266
:10AA2000B6F806B07B1B08EB070ACBF30E0B9BB204
:10AA30001FFA8AFAA845444603D3641BA4B2AC4269
:10AA4000FBD22D1B3068ADB2BD420BFB04005AD3C4
:10AA50000BFB07F2494649F063FEB288D0454FEA46
:10AA6000420302D8BAEB420F03DBAAEB03031FFA3F
:10AA700083FAA6F808A03D462CE0B6F806B0AF422F
:10AA8000CBF30E0B32D2904536BFC2EB4501A8EB9B
:10AA90000201414489B2680039447B1B81429BB268
:10AAA0000DDB02EB050A1FFA8AFAAAEB07081FFA68
:10AAB00088F842453AD9A8EB00001FFA80F807EB66
:10AAC000080A1FFA8AFAB5E71546284603B0BDE81A
:10AAD000F08F0025F0680028F7D000231A461946A9
:10AAE0003AF00AFC284603B0BDE8F08F002DF1D003
:10AAF0007F1B02EB050A0BFB07991FFA8AFA9046A7
:10AB00002F46002396E715FB0BF5ADB22A464946C2
:10AB1000019349F005FE019B30681C4414FB0BF4C3
:10AB200009EB0501A2B249F0FBFD96E7404581DC47
:10AB3000C1E700BF10B50446C06818B14FF0FF313F
:10AB40003AF0C6FF206918B14FF0FF313AF0C0FF6C
:10AB5000E06800236381238118B11A4619463AF050
:10AB6000CBFB206920B100231A4619463AF0C4FBFA
:10AB7000012010BD38B5C379B1EBD31F1FD00446F7
:10AB8000C0680D4618B14FF0FF313AF0A1FF2069BF
:10AB900018B14FF0FF313AF09BFFE379E06865F3BD
:10ABA000C713E37120B100231A4619463AF0A4FBFB
:10ABB000206920B100231A4619463AF09DFB012076
:10ABC00038BD00BF2DE9F0411C4EDFF87C803278A3
:10ABD0001B4F0024054623460DE03B6813EB44134E
:10ABE00023D0DB682846984732780134E4B2511DFF
:10ABF000A142234606DBA242A3EB0203EDD808EBF9
:10AC00004313EEE70F483822002148F0BCFD0D4801
:10AC10004FF0FF33C0E90233C0E9063343604361BC
:10AC2000036103628384BDE8F0814FF0E023D3F831
:10AC3000F03DDB07F7D500BEBDE8F0810C770020C2
:10AC400010770020187700209C950700704700BF00
:10AC5000704700BF0020704700207047704700BF5A
:10AC6000704700BF704700BF704700BF024B587865
:10AC7000003818BF0120704718770020024B187861
:10AC8000C0F38000704700BF18770020024B18788F
:10AC9000FF3818BF01207047206100202DE9F047E0
:10ACA000DFF8F88098F80030FF2B82B055D10D46C0
:10ACB000002956D03822002106462F4848F063FD6F
:10ACC0002E4B2F49002401201C703AF0C1FC2D4B63
:10ACD0001860002845D02C4B009433F80A1C33F838
:10ACE0000C0C53F8082C1F463AF06CFA57F8041C69
:10ACF00004463BF087F8254B1C6094B3244B23B1EA
:10AD00002448AFF30080244B1860224FDFF890A056
:10AD10003A78DFF88490002423460EE0D9F800301A
:10AD200013EB44131DD05B68DBB198473A780134CC
:10AD3000E4B2511DA142234605DBA242EED89B1A84
:10AD40000AEB4313EFE72946304688F8006001F02C
:10AD50007FFB30B1304601F07DFB012002B0BDE841
:10AD6000F0874FF0E023D3F8F03DDB0700D500BEBD
:10AD7000002002B0BDE8F08718770020147700208B
:10AD8000F8750020F4750020D0600020487600207F
:10AD9000000000000C7700201077002020610020C8
:10ADA0009C9507002DE9F04FDFF8E08298F800301D
:10ADB000FF2B8DB033D004464FF47A72002380020B
:10ADC000A10D46F01BFC012838BF0120A94DDFF87A
:10ADD000AC92DFF8B0A2DFF8B8B20746661C28686C
:10ADE00000F0D580002C14BF3A46002209A93AF0A1
:10ADF0001BFDA0B19DF82530013B072B00F2B88365
:10AE0000DFE803F0A59CBCB0943B10040A9B0BB197
:10AE10000B98984728683AF0CBFF0028DED10DB098
:10AE2000BDE8F08F9DF8281001F07F0609EB460081
:10AE300000EBD11090F8263023F0010380F8263083
:10AE400090F8263023F0040380F82630002E00F01E
:10AE5000A880037D9AF80020934280F09A80864A69
:10AE6000126812EB431300F0BC809E699DF8292004
:10AE70000B9B9DF82400B047CCE79BF80030002BDB
:10AE800000F0AF809BF80030013BDBB28BF8003064
:10AE90009BF8003003F0FF00002BBBD1774E3378D6
:10AEA00043F00103337096F8263060F3000386F810
:10AEB000263096F8263060F3820386F8263096F81E
:10AEC000273060F3000386F8273096F8273060F3C8
:10AED000820386F827309DF82430009300F058FE56
:10AEE0009DF8282002F06003602B68D0402B00F012
:10AEF000B28002F01F02012A7CD0022A59D0002A17
:10AF00005DD1202B00F0F280002B58D19DF8293024
:10AF1000092B54D8DFE813F0A001920153008401FB
:10AF200053007701BC015300B101080199F80030CA
:10AF3000D9077FF56FAFFFF797FE6BE79DF8240009
:10AF4000FFF740FE00F01AFEFFF78AFE62E79DF869
:10AF50002400FFF737FE00F011FE9DF8283089F835
:10AF6000023057E799F80030D8077FF553AF99F8CA
:10AF70000000C0F3C000FFF775FE4BE799F80330FF
:10AF8000DA077FF547AF0A98FFF762FE42E72246ED
:10AF90002CE7501D984224DB9B1A394A02EB4313DD
:10AFA00063E70B9B9DF829209DF8240000F002FE2A
:10AFB00030E79DF82C1001F07F02082A6AD94FF083
:10AFC000E023D3F8F03DDE0700D500BE9DF8240055
:10AFD000002101F0AFFC9DF82400802101F0AAFCC3
:10AFE00018E74FF0E023D3F8F03DDC077FF517AF0B
:10AFF00000BE14E79DF82C300F2BE7D8214A3344CC
:10B0000012781B79934280F06D811B4A166816EB0B
:10B010004316DBD0706900F0BBFD736900980AAA83
:10B020000121984700287FF4F5AE9DF8283013F0F1
:10B030006006CBD19DF829300A3B012BC6D800F021
:10B04000A7FD9DF829300A2B00F00B8200980AA971
:10B0500000F028FDDEE60C480028B7D000F098FD8F
:10B0600000980AAA0121FCF703FF00287FF4D2AE62
:10B07000ACE700BF4876002010770020187700204A
:10B080009C9507000C770020717E02002061002053
:10B090001477002006EB420000EBD110DFF824C348
:10B0A000007D0190C8099CF800E00290019870456D
:10B0B0004FEA420280F01F81DFF80CC3DCF800C0C9
:10B0C0000CEB40100190002B00F0238100283FF48E
:10B0D0007DAF019E706900F05BFD736900980AAA5C
:10B0E0000121984700287FF495AE6FE79DF82C303A
:10B0F0000F2B3FF66BAFB34A334412781B79934260
:10B1000080F04B81B04A166816EB43163FF45EAFF1
:10B11000706900F03DFD736900980AAA0121984703
:10B1200000287FF477AE51E773789DF82A209A4281
:10B1300000F043817378002B40F04A817270002A3E
:10B1400000F03981501EC0B2FCF784FC0346002891
:10B1500000F060814278022A40F05C81C179307849
:10B16000C1F340121201C1F3801142EA411220F0F2
:10B170003000024332705A8803F109019A18CDE970
:10B18000017404920C46049BA34240F2B881637898
:10B190000B2B03BF2378E178E41801216378042B9B
:10B1A00040F09181049B06911B1B9BB20593854B3C
:10B1B00000271B78039721461CE0834B1C6814EB87
:10B1C000471400F080812369059A009807919847F9
:10B1D00008280799024607F1010303D90598904210
:10B1E00080F05C81DFB2774B03971B785A1D974242
:10B1F00000F30E81039ABB42A2EB0303DDD8734A2E
:10B2000002EB4314DFE70AA800F0C8FC00989DF8A1
:10B210002A1001F025F9337843F002033370F9E581
:10B22000BDF82A30012B7FF4D1AE3378009843F07B
:10B2300008030AA9337000F035FCEBE5BDF82A30AD
:10B24000012B7FF4C3AE3378009823F008030AA9DA
:10B25000337000F027FCDDE5337800989A0802F09F
:10B260000202C3F340131343ADF822300DF1220262
:10B2700002230AA900F02EFCCCE573788DF8223069
:10B28000009801230DF122020AA900F023FCC1E578
:10B29000BDF82A00030A013B020AC0B20E2B3FF69A
:10B2A00095AE01A151F823F047B5020037B5020071
:10B2B00027B50200CDAF0200CDAF020009B50200F4
:10B2C00037B50200CDAF0200CDAF0200CDAF020016
:10B2D000CDAF0200CDAF0200CDAF0200CDAF020076
:10B2E00077B40200511D9942FFF670AE374E9B1A9B
:10B2F00006EB43168EE60EF1050C844556DBDFF8AF
:10B30000CCC0A0EB0E000CEB40100190002B7FF4A2
:10B31000E0AE9DF829C00CF0FD03012B0CD0BCF170
:10B32000000F7FF44CAEB318029A0098134493F8C0
:10B330002630C3F3400397E7BDF82A30BBB9BCF110
:10B34000010F98F8000076D0039201F0F3FA039A07
:10B35000B318029A134493F8262042F0020283F8AD
:10B36000262093F8262042F0010283F82620019B34
:10B37000002B3FF44FAD586900F00AFC019B009888
:10B380005B690AAA01219847002000F001FC96F8A9
:10B390002730DB073FF53EAD58E6511D9942FFF6D9
:10B3A00015AE0A4E9B1A06EB4316B1E6002B7FF44E
:10B3B0000DAE0193ADE7FFF753FC00980AA900F02A
:10B3C00071FB27E50C770020107700209C95070083
:10B3D00000210098029201F059F8009801F0FAF863
:10B3E000B37800980193FFF7EDFB019B029AB370CD
:10B3F000A4E63B4621466348059202F0E1F8624B21
:10B40000059A1B781444039A05339342BFF6BBAEEA
:10B41000DDE901744FF0E023D3F8F03DD90700D502
:10B4200000BE4FF0E023D3F8F03DDA0700D500BEB0
:10B4300000237370CAE5CDE9033201F09FFA049A44
:10B44000029B32441A44039B92F8261063F3410195
:10B4500082F8261092F8261063F3000182F8261075
:10B4600085E700988DF822600AA901230DF12202D8
:10B4700000F030FBCEE4454B002B3FF4A7ADFCF7CA
:10B48000F3FC024600283FF4A1AD009853880AA9B6
:10B4900000F020FB00287FF4BDAC97E523460C4666
:10B4A0000699012918D00029A3D0A37819445FFA7E
:10B4B00081FC02E063450F719BD0F11801330879DC
:10B4C000FF28DBB2F6D04FF0E023DDE90174D3F8BA
:10B4D000F03DD807A5D5A3E71B692D48834208BFD7
:10B4E00002212C488342E0D16379012BDDD1A3797D
:10B4F000012BDAD1E379002B08BF0221D5E7DDE982
:10B500000174FFF7ABFB58E7FFF7A4FB02460028E6
:10B510003FF45CAD009813780AA900F0DBFA00282C
:10B520007FF478AC52E5BDF82C10FCF799FA02468E
:10B530000028EFD14AE5022A14D0FFF78DFB02461E
:10B540000028A2D142E5FCF781FA024600283FF428
:10B5500036AD009812230AA900F0BCFA00287FF447
:10B5600059AC33E5FCF776FA024600288DD126E582
:10B570004FF0E023D3F8F03DDB077FF54BAC00BE86
:10B5800048E400BF2C7700200C770020697E020081
:10B590006D820200298A02002DE9F0434378023BC4
:10B5A00085B005460E46042B13D8DFE803F003519F
:10B5B000737C4700814B1A7822F001021A701A78C6
:10B5C000002122F002021A7059701A7861F3820287
:10B5D0001A707B4B18688EB933464FF0FF322946FC
:10B5E00039F08AFE003818BF0120E8B16978287860
:10B5F0003246FFF72BFB05B0BDE8F083002301AA1C
:10B60000294601933AF05AF8019B43B16D4B4FF034
:10B6100080525A6040BFBFF34F8FBFF36F8F003827
:10B6200018BF01200028E1D14FF0E023D3F8F03D0E
:10B63000DB07E0D500BE05B0BDE8F083624A1378B1
:10B640000133DBB213705E4B1868002ED6D1C3E70E
:10B650005E4FDFF87C913A78DFF878810024A446C9
:10B6600011E0D8F8003013EB441C06D0DCF81C3095
:10B670001BB16968287898473A780134E4B2531DC1
:10B68000A342A44618DBA242EBD8ACEB020C09EBB8
:10B690004C1CEBE7494B1A78D707ACD51A7842F027
:10B6A00004021A7095E7454B1A78D407A3D51A7887
:10B6B00022F004021A708CE7404C2378580730D5EA
:10B6C000237823F0040323703D4B2A7818688DF803
:10B6D000042000230522ADF80E30CDF80630CDF859
:10B6E0000A308DF80520002E56D06A4601A9009335
:10B6F00039F0E4FF009B43B1324B4FF080525A6067
:10B7000040BFBFF34F8FBFF36F8F003818BF0120CA
:10B7100000284BD14FF0E023D3F8F03DD90700D5F6
:10B7200000BEE378DA077FF566AF254A297810680E
:10B730008DF8041000236A68CDF806300321CDF897
:10B740000A30ADF80E308DF80510029286B93346F6
:10B750004FF0FF3201A939F0CFFD00283FF464AF6C
:10B760009DF805109DF804003246FFF76FFA42E796
:10B770006A4601A9009339F0A1FF009B43B1114B28
:10B780004FF080525A6040BFBFF34F8FBFF36F8FAF
:10B7900000283FF449AFE3E733464FF0FF3201A9F9
:10B7A00039F0AAFD003818BF0120B1E79DF8051057
:10B7B0009DF804003246FFF749FAB2E718770020F7
:10B7C0004876002000ED00E0147700200C77002080
:10B7D0009C950700107700202DE9F84F0A9F002A5A
:10B7E00043D0DFF88CA0DFF88C900C461E4615463F
:10B7F0004FF0000B17E099F802109AF8008001F062
:10B800008FFE00B32146404600F054FE10B3A278EC
:10B81000D10916BF0B9B3A701A7022780BF1010BFD
:10B82000AB45144421D0617805294FF00002204631
:10B8300010D1E17801F00301B1420BD1A17801F000
:10B840007F010829D7D94FF0E023D3F8F03DDA077C
:10B8500000D500BE4FF0E023D3F8F03DDB0702D463
:10B860000020BDE8F88F00BEFAE70120BDE8F88FA0
:10B87000206100201877002030B51B4D85B00346AD
:10B880004FF40064CDE901432868039114467AB966
:10B89000134601A94FF0FF3239F02EFDD8B19DF8C3
:10B8A00005109DF804002246FFF7D0F905B030BD21
:10B8B00000236A4601A9009339F000FF009B43B1C1
:10B8C0000A4B4FF080525A6040BFBFF34F8FBFF317
:10B8D0006F8F0028E3D14FF0E023D3F8F03DDB0772
:10B8E000E4D500BE05B030BD4876002000ED00E094
:10B8F00038B58B7803F07F03082B08D94FF0E0238D
:10B90000D3F8F03DDB0700D500BE002038BD084A63
:10B91000084B0C46204691781D78002201F000FE6D
:10B920000028EBD021462846BDE8384000F0C2BDD3
:10B930001877002020610020CB09054A054801F056
:10B940007F01263303EB41031844116801F09EBDCB
:10B95000F475002018770020CB09054A054801F04E
:10B960007F01263303EB41031844116801F0BABD8F
:10B97000F47500201877002010B5184C01F07F0CEA
:10B9800004EB4C0404EBD1142034A079C00708D593
:10B990004FF0E023D3F8F03DDA0700D500BE0020D9
:10B9A00010BD94F806C00E484CF0010C007884F8E5
:10B9B00006C000F0BDFE0028F2D1A27960F30002BB
:10B9C000A271A2794FF0E02160F38202A271D1F856
:10B9D000F03DDB07E3D500BEE1E700BF18770020AC
:10B9E00020610020054B01F07F0203EB420303EBD3
:10B9F000D11191F8260000F001007047187700205F
:10BA000010B50C4B18780C4600F094FF0A4904F06E
:10BA10007F0301EB430101EBD41191F8263043F091
:10BA2000020381F8263091F8263043F0010381F8B3
:10BA3000263010BD2061002018770020054B01F052
:10BA40007F0203EB420303EBD11191F82600C0F310
:10BA5000400070471877002010B50F4B18780C463F
:10BA600000F002FE0D4904F07F0301EB430101EBFE
:10BA7000D41191F8263023F0020381F8263091F892
:10BA8000263023F0010381F8263091F8263023F088
:10BA9000040381F8263010BD2061002018770020B3
:10BAA000704700BF10B40A4C0A46844608684968CB
:10BAB000234603C311780023C943C4E90233604617
:10BAC0005DF8044B01F080011A46FFF755BF00BF37
:10BAD00090770020F8B5274E8C46054608684968DF
:10BAE000B260B646AEE803000021F181BCF8060062
:10BAF000834228BF0346B38190B11C462BB317463F
:10BB0000D2B196F90030402C28BF4024002B28DB0E
:10BB1000194A23462846FFF72FFF68B10120F8BDD8
:10BB20009CF80010C9430346024601F080012846F4
:10BB3000FFF722FF0028F1D14FF0E023D3F8F03DCA
:10BB4000DB0700D500BE0020F8BD31781A4601F0B1
:10BB5000800123462846FFF70FFF0028ECD0012084
:10BB6000DDE722463946044848F0DAFD024A8021E2
:10BB7000EFE700BF9077002050770020034B0022B2
:10BB8000C3E90022C3E902221A61704790770020BE
:10BB9000014B1861704700BF907700200346044AAC
:10BBA00059680068134603C30023C2E90233704793
:10BBB0009077002070B53D4C2278C909B1EBD21FB7
:10BBC00082B006461D4617D053B14FF0E023D3F89C
:10BBD000F03DDB0702D4002002B070BD00BEFAE7E2
:10BBE0002146FFF75DFF23691BB122460321304642
:10BBF0009847012002B070BD94F90030002B06DB9D
:10BC0000A0680028E7D02A492A4648F089FDE08943
:10BC1000A168E388284480B229448342E081A1607E
:10BC200015D03F2D13D9A28994F90040131A9BB265
:10BC3000402B28BF4023002C26DB904232D01C4AE8
:10BC400000213046FFF798FE0028D2D1BDE72369D6
:10BC500023B1164A02213046984760B1217800236B
:10BC6000C9431A4601F080013046FFF785FE0028DF
:10BC7000ABD00120BEE70146304600F05BFE8021DC
:10BC8000304600F057FEB4E7904208D01A46084804
:10BC9000019348F045FD064A019B8021D1E78021B0
:10BCA0000022CEE700210A46CBE700BF90770020B4
:10BCB0005077002000B170473BF08ABA00B170475E
:10BCC0003BF090BA0138C3B2042B07D856230E4A72
:10BCD00003FB00F013181B79DB0708D44FF0E023B7
:10BCE000D3F8F03DDB0700D500BE0020704701F01F
:10BCF0007F0CC90901F1360303EB4C0303491844D7
:10BD00000968104401F0C2BBA8770020A477002086
:10BD10000138C3B2042B07D856230B4A03FB00F0AB
:10BD200013181B79DB0701D40020704701F07F0C4A
:10BD3000C90901F1360303EB4C03044918440968AF
:10BD4000104401F0CFBB00BFA8770020A4770020EB
:10BD500030B5441E8646E0B2042883B016D81D468E
:10BD6000562303FB04FC174801F07F040CEB44044A
:10BD7000044404EBD1143034A379DB0709D54FF028
:10BD8000E023D3F8F03DDB0700D500BE002003B070
:10BD900030BD10F80C0094F806C04CF0010C1346AE
:10BDA00084F806C00A460095714600F0ABF90028F9
:10BDB000EDD1A27960F30002A271A27960F3820250
:10BDC000A271E3E7A8770020F0B583B041F002014B
:10BDD000002704468DF800108DF80120ADF804709E
:10BDE000A3B10121FBF77CFE022301AA694620468C
:10BDF000FBF79CFE394606462046FBF771FE184FBE
:10BE00009DF80430FB70304603B0F0BD144F1D4662
:10BE1000F86D4FF0FF3139F05BFE29462046FBF705
:10BE200091FE20460121FBF75BFE01AA0223694631
:10BE30002046FBF77BFE294606462046FBF750FED0
:10BE400020460121FBF77EFE2B46F86D2A46294647
:10BE500039F052FA9DF80430FB70304603B0F0BD63
:10BE600058790020F0B5324E0B781546B2799A42D7
:10BE700083B00F46044605D0B3711A46E0212B4625
:10BE8000FFF7A2FF2223BF688DF8063015B301210A
:10BE90002046FBF725FE01230DF107020DF10601F7
:10BEA0002046FBF743FE9DF80730F3703946082320
:10BEB00000222046FBF73AFE00212046FBF710FE49
:10BEC00010222B462046F021F27103B0BDE8F0406D
:10BED000FFF77ABFF06D4FF0FF3139F0F9FD2946D9
:10BEE0002046FBF72FFE20460121FBF7F9FD0DF15F
:10BEF00007020DF1060101232046FBF717FE9DF80E
:10BF00000730F3702A46082339462046FBF70EFE19
:10BF100029462046FBF7E4FD20460121FBF712FEEF
:10BF2000F06D2B462A46294639F0E6F9C8E700BFEE
:10BF3000587900202DE9F043464E83B007460C4661
:10BF400098469AB10A78B179914203D0E021B27152
:10BF5000FFF73AFFA37813F0100F08BF40224346C3
:10BF600018BF8022E8213846FFF72EFF2288338948
:10BF70009A4213D0E388A588ED1A6388ADB2C3F363
:10BF80004A139D4228BF1D4615F0FF0513D12A46CE
:10BF9000434638213846B570FFF716FF23783372D1
:10BFA0006278727243463846F021F27103B0BDE800
:10BFB000F043FFF709BF1223D4F808908DF806303C
:10BFC000B8F1000F19D038460121FBF789FD0DF1BA
:10BFD00007020DF1060101233846FBF7A7FD9DF886
:10BFE0000730F37049462B4600223846FBF79EFD8A
:10BFF00000213846FBF774FDC9E7F06D4FF0FF31C3
:10C0000039F066FD41463846FBF79CFD3846012174
:10C01000FBF766FD0DF107020DF10601012338461D
:10C02000FBF784FD9DF80730F37042462B464946E6
:10C030003846FBF77BFD41463846FBF751FD384655
:10C040000121FBF77FFDF06D43464246414639F042
:10C0500053F99CE7587900204B782DE9F0411F07F0
:10C060000C460646154605D1DF0645D48A685AB304
:10C070008A884AB39B061FD4214F2278BB7993420A
:10C0800005D02B46E0213046BA71FFF79DFEA3781C
:10C0900013F0100F08BF10222B4618BF2022E821F2
:10C0A0003046FFF791FE6278FA712B463046F02158
:10C0B000BDE8F041FFF788BE2B46214630460122FD
:10C0C000BDE8F041FFF736BF0D4F227803F02003A3
:10C0D00043F08004BB79934205D02B46E0213046E3
:10C0E000BA71FFF771FE2B4622463046FC71F021F3
:10C0F000BDE8F041FFF768BEBDE8F041FFF7B2BE12
:10C10000587900202DE9F04102F07F044FEAD21E59
:10C1100051EA0402BDF8187005468EF0010E3AD0BF
:10C12000344E01203246002C5BD092F86CC08C4516
:10C1300008D00130142802F10C0229D092F86CC00A
:10C140008C45F6D100EB400C06EB8C0C9CF861C0E2
:10C150000CF00F08A045ECD1CCF3401CF445E8D11D
:10C1600002F16C04A360A378A78003224FF00008BB
:10C1700062F30303A4F80680A3704046FFF79AFD1C
:10C18000B77AB7B14046FFF799FD0120BDE8F081CD
:10C190000020BDE8F081184CA4F16006627822F01E
:10C1A000300242EA4E126270A27842F01002A2708F
:10C1B000D8E701233846B372FFF780FD3A4621469F
:10C1C0002846FFF749FFE0E700EB400406EB840454
:10C1D00094F86140240709D00130142802F10C02C0
:10C1E000D6D092F86C408C42F6D1EDE702F16C04A7
:10C1F000D4E700BF58790020B879002042DF7047AB
:10C2000043DF704744DF704712DF704730B5344A70
:10C21000BFF35B8F01460120D2E84F3FC2E8440FD5
:10C22000002CF9D1BFF35B8FDBB2002B3CD1082986
:10C230002ED02C4C01F59473A2F5907E54F8233047
:10C240004D011FFA83FC0EEB41135EF80550B3F865
:10C2500006E09B88A3EB0E039BB2634528BF6346B1
:10C2600001EB810C04EB8C0CCCF80057CCF80437B4
:10C270001D4B43F8210003EB8103BFF36F8FBFF326
:10C280004F8F1A498B4208D004398B4205D030BDFC
:10C29000144BD3F8C014CC0312D5BFF35B8F00232B
:10C2A0001370BFF35B8F30BD114B12485A68C2F355
:10C2B0000802003ABDE8304018BF0122FFF7DCBA9F
:10C2C00012F8155C002DE8D052F8202CC3F8A027F6
:10C2D000C3F8A4179864BFF36F8FBFF34F8F30BDBF
:10C2E000C87B00200070024028700240507002405D
:10C2F00000ED00E065C30200164ABFF35B8F014604
:10C300000120D2E84F3FC2E84C0FBCF1000FF8D13A
:10C31000BFF35B8FDBB293B90860BFF36F8FBFF3DE
:10C320004F8F0D4B994203D0043B994200D0704788
:10C330000023BFF35B8F1370BFF35B8F7047074B16
:10C3400007485A68C2F30802003A18BF0122FFF7F3
:10C3500093BA00BFC87B00205070024000ED00E09F
:10C36000F9C2020030B5344ABFF35B8FC1B201207D
:10C37000D2E84F3FC2E8440F002CF9D1BFF35B8FE6
:10C38000DBB2002B3CD108292ED02C4C01F5947344
:10C39000A2F5907E54F823304D011FFA83FC0EEB7A
:10C3A00041135EF80550B3F806E09B88A3EB0E033B
:10C3B0009BB2634528BF634601EB810C04EB8C0CF8
:10C3C000CCF80057CCF804371D4B43F8210003EBA1
:10C3D0008103BFF36F8FBFF34F8F1A498B4208D091
:10C3E00004398B4205D030BD144BD3F8C014CC03B4
:10C3F00012D5BFF35B8F00231370BFF35B8F30BD8B
:10C40000114B12485A68C2F30802003ABDE83040A6
:10C4100018BF0122FFF730BA12F8155C002DE8D0E2
:10C4200052F8202CC3F8A027C3F8A4179864BFF3D0
:10C430006F8FBFF34F8F30BDC87B0020007002406C
:10C44000287002405070024000ED00E065C3020019
:10C4500001207047014B80225A60704700E100E0E4
:10C46000094B10B4D3F80044D3F800240020224331
:10C470004FF48001C3F800245DF8044BC3F8580161
:10C48000C3F80413704700BF00700240074B4FF41D
:10C49000001229B1C3F80423054B83F8211170471A
:10C4A000C3F80823024B83F8211170470070024043
:10C4B000A87A002030B48A78434CB1F804C0C97817
:10C4C00002F07F00430003EBD21304EB0313CCF321
:10C4D0000A0CA3F808C001F00303012B4FEAD215A0
:10C4E0002BD00123394903FA00F4B5B1023083405F
:10C4F000C1F80433D1F810352343C1F81035334B5C
:10C5000042F48071C3F81825C3F80C15BFF36F8F80
:10C51000BFF34F8F012030BC704700F10C0C03FAC1
:10C520000CF3C1F80433D1F8143500F594702343AB
:10C53000C1F8143541F82050E1E7082808D04FF041
:10C54000E023D3F8F03DDB0700D500BE0020E2E792
:10C55000EDB9B4F818311BB11C4B8022C3F81C256F
:10C560001A4A0023C2F85031D2F8003313F40013F2
:10C5700008BFC2F85431154B4FF44012C3F80423DE
:10C58000D3F8142542F48072C3F81425BEE70F4B8C
:10C59000B4F808210021C3F82C1112B18022C3F88D
:10C5A0001C250A4AD2F8003313F4001308BFC2F85E
:10C5B0005431064B064AC3F80423D3F8102542F43D
:10C5C0008072C3F81025A1E7A87A0020007002400D
:10C5D000000820001E4B80222DE9F041C3F8842082
:10C5E000BFF34F8FBFF36F8F1A4D1B4F0D244FF0CA
:10C5F000010800261948A200A4F10A03104408FA11
:10C6000003F308FA04F21343C7F808332022466004
:10C61000002186620134284647F0B5F8142C05F154
:10C620002005E7D10E4BC7F808332022C7F81C6558
:10C6300000217E620B48BE6447F0A5F8C7F8148558
:10C64000C7F81085024B80225A60BDE8F08100BF18
:10C6500000E100E0C87A002000700240D06F024084
:10C6600000083000A87B002001F07F02082A10B4E7
:10C670004FEAD11129D0012303FA02F0C043B9B126
:10C68000941CA340284CC4F80833D4F81035184043
:10C69000264BC4F8100501EB420103EB0113002205
:10C6A000DA72BFF36F8FBFF34F8F5DF8044B7047A3
:10C6B00002F10C04A3401C4CC4F80833D4F8143520
:10C6C0001840C4F81405194BE5E7184B03EB0110AB
:10C6D0000024A0F808411448C9B14FF40064C0F820
:10C6E0000843D0F8104524F48074C0F810450E4873
:10C6F000B3F808C10024C0F81C45B3F8184114EB86
:10C700000C0F04BF4FF40014C0F80843C3E74FF404
:10C710008014C0F80843D0F8144524F48074C0F89D
:10C720001445C0F85011E2E700700240A87A0020DA
:10C7300001F07F00F0B54FEA400C764C0CEBD11CB9
:10C7400004EB0C1E85B09EF80B50002D54D14FEA1F
:10C750000C1C05F0FF0744F80C20CE09AEF806705B
:10C76000AEF8043078B1002E77D104EB40140123E9
:10C77000E372BFF36F8FBFF34F8FA37A002B63D1A8
:10C78000012005B0F0BD002B40D1634DD5F88024C9
:10C79000C2F3C012B2425ED0604E72688DF80810CB
:10C7A000C2F3080100394FF4E060ADF8040018BF8F
:10C7B000012101A803938DF80930FEF7EDFEBFF3C8
:10C7C0005B8F012104F59072D2E84F3FC2E8401F11
:10C7D0000028F9D1BFF35B8FDBB2002B40F08F80D4
:10C7E0002965BFF36F8FBFF34F8FBFF35B8F84F863
:10C7F0002031BFF35B8FC3E74FF0E023D3F8F03D68
:10C80000DB0700D500BE002005B0F0BD2EBB012324
:10C81000E372434BBFF35B8F0121D3E84F2FC3E893
:10C82000401F0028F9D1BFF35B8FD0B200285AD146
:10C830003948C164BFF36F8FBFF34F8FBFF35B8F76
:10C840001A70BFF35B8F9BE7E37A002B98D0A67238
:10C85000FFF7DCFC94E7002AD9D004EB401400EB8E
:10C860008003E18AA28A258B521A9B0092B203F1BF
:10C870008043AA4203F51C3321692A4CC3F80016F1
:10C8800028BF2A46C3F80426254ABFF35B8F04EB72
:10C8900080010125D2E84F3FC2E8465F002EF9D162
:10C8A000BFF35B8FDBB29BB944F82050BFF36F8FAF
:10C8B000BFF34F8F1C4B994203D0043B99427FF446
:10C8C0005FAFBFF35B8F00231370BFF35B8F57E73E
:10C8D000124B16485A68C2F30802003A18BF0122E8
:10C8E000FEF7CAFF4CE70D4B11495A680F48C2F3D7
:10C8F0000802003A18BF0122FEF7BEFF40E7726847
:10C9000009490A48C2F30802003A18BF0122FEF79B
:10C91000B3FF35E7A87A00200070024000ED00E088
:10C92000C87B00200470024050700240F9C202002F
:10C930004C70024011F07F0008B507D10D4B012269
:10C940005A65BFF36F8FBFF34F8F08BD0828F8D02B
:10C95000084B41F48072C909C3F81825F1D1064B80
:10C9600003EB40139A7A002AEBD09972FFF74EFC42
:10C97000E7E700BF00700240A87A002011F0770FAF
:10C9800012D00A4B41F48072C3F80C15C3F80C2581
:10C99000CA09C3F8181504BF01F5947143F82120A2
:10C9A000BFF36F8FBFF34F8F704700BF007002401F
:10C9B0002DE9F04F924A0023D2F8000387B002F528
:10C9C00080721E4601251F4620FA03F1CC0709D5C7
:10C9D000116805FA03F429B126431760BFF36F8F7E
:10C9E000BFF34F8F0133192B02F10402ECD1F10791
:10C9F00000F15682834D320508D5814BD3F8A83615
:10CA000001229BB285F81C21A5F81631B30206F469
:10CA1000800423D57A4BD3F81425D70540F11D8225
:10CA2000002C00F0B082D3F80024D10740F1AB8293
:10CA3000D3F81025D20540F1DB8195F81C31002B8D
:10CA400040F0AB8203A86E4B4FF44072D3F8203510
:10CA500004930121ADF80C20FEF79EFD002C40F060
:10CA6000D281300232D5664BD3F88014D3F8844497
:10CA7000D3F88854D3F88C24D3F89074C9B200202A
:10CA800061F30700E4B264F30F2065F3174062F32B
:10CA90001F60D3F89454002267F3070265F30F2256
:10CAA000D3F89854D3F89C3465F31742490663F3DE
:10CAB0001F6201D1052C09D04FF4C06304900121FD
:10CAC00003A8ADF80C300592FEF766FD4E4B3340DF
:10CAD000002B40F02382DFF82C81DFF82491002422
